:020000040800F2
:100000003801012031030008458B00082554000801
:10001000418B00085315000815A2000800000000DD
:100020000000000000000000000000007102000855
:10003000D924000800000000CD0200084198000803
:100040004B0300084B0300084B0300084B03000858
:100050004B0300084B0300084B0300084B03000848
:100060004B0300084B0300084B0300084B03000838
:1000700029210008392100084B0300084921000804
:100080004B0300084B0300084B0300084B03000818
:10009000591500084B0300084B0300084B030008E8
:1000A0004B0300084B0300084B0300084B030008F8
:1000B000359900084B0300084B0300084B03000868
:1000C0004B0300084B0300084B0300084B030008D8
:1000D0004B0300084B0300084B030008F1A0000885
:1000E0004B0300084B0300084B0300084B030008B8
:1000F0004B0300084B0300084B0300084B030008A8
:100100004B0300084B0300084B0300084B03000897
:100110004B0300084B0300084B0300084B03000887
:10012000592100084B0300086921000879210008C3
:100130004B0300084B0300084B0300084B03000867
:100140004B030008691500084B0300084B03000827
:100150004B0300084B0300084B0300084B03000847
:100160004B0300084B0300084B0300084B03000837
:100170004B0300084B0300084B030008000000007D
:100180004B0300084B03000800F002F800F060F891
:100190000AA090E8000C82448344AAF10107DA45E2
:1001A00001D100F055F8AFF2090EBAE80F0013F0D4
:1001B000010F18BFFB1A43F00103184754D9000080
:1001C00074D900000A444FF0000C10F8013B13F002
:1001D000070408BF10F8014B1D1108BF10F8015BA0
:1001E000641E05D010F8016B641E01F8016BF9D193
:1001F00013F0080F1EBF10F8014BAD1C0C1B09D1EA
:100200006D1E58BF01F801CBFAD505E014F8016B5B
:1002100001F8016B6D1EF9D59142D6D370470000ED
:100220000023002400250026103A28BF78C1FBD8FF
:10023000520728BF30C148BF0B6070471FB50CF094
:1002400085FF9DE8030000F021FA1FBD10B510BD29
:1002500000F0AEFA1146FFF7F1FF0BF0D1F800F015
:10026000CCFA03B4FFF7F2FF03BC00F0FDFA000084
:100270002C4B19680868B0E8F04F80F30988BFF389
:100280006F8F4FF0000080F311887047000000006E
:1002900008480068006880F308884FF0000080F389
:1002A000148862B661B6BFF34F8FBFF36F8F00DF64
:1002B00000BF00BF08ED00E0DFF80C00016841F46A
:1002C00070010160704700BF88ED00E0EFF3098026
:1002D000BFF36F8F134B1A681EF0100F08BF20ED8D
:1002E000108A20E9F04F106009B44FF0500080F3FD
:1002F0001188BFF34F8FBFF36F8F0CF0ABF94FF046
:10030000000080F3118809BC19680868B0E8F04F54
:100310001EF0100F08BFB0EC108A80F30988BFF3FD
:100320006F8F704708050020EFF3058070470000CD
:100330000948804709480047FEE7FEE7FEE7FEE779
:10034000FEE7FEE7FEE7FEE7FEE7FEE704480549B5
:10035000054A064B704700002199000889010008F2
:10036000388100203801012038C1002038C1002028
:1003700070B5064600F06EF9056806F10B0020F036
:100380000704B4429CBF002070BD2B466A68BAB116
:100390001068A04210D304F1080188423CBF5068A5
:1003A000586007D35168101941601168091B01603A
:1003B00058601460101D70BD13465268002AE7D1C2
:1003C0002146284600F04EF90028DED170BD53EAE0
:1003D000020C00F069802DE9F04B4FF00006002B75
:1003E0001FBFB3FA83F503FA05F424FA05F65E405D
:1003F00012BF1643B2FA82F502FA05F4C5F12005E0
:100400001EBF22FA05FC44EA0C04203556EA044CCF
:100410004FEA144418BF641C4FF000084FF0000965
:10042000904271EB030C39D3002919BFB1FA81F75F
:1004300001FA07F6B0FA80F700FA07F6C7F12007CD
:100440001EBF20FA07FC46EA0C062037B6FBF4FC78
:10045000A7EB0507103F07F01F0BCBF120060CFAA6
:100460000BFB2CFA06F644BFB3460026202FA4BF90
:100470005E464FF0000B5BEA060C08BF4FF0010B25
:1004800019EB0B09ABFB027C48EB0608C01B06FB13
:1004900002CC0BFB03CC71EB0C01C1E70B4602460F
:1004A00041464846BDE8F08B13B54FF000004FF0D1
:1004B0000001AFF30080BDE81C407047032A40F202
:1004C000308010F0030C00F0158011F8013BBCF1F6
:1004D000020F624498BF11F801CB00F8013B38BF0E
:1004E00011F8013BA2F1040298BF00F801CB38BF1C
:1004F00000F8013B11F0030300F02580083AC0F03A
:10050000088051F8043B083A51F804CBA0E80810E1
:10051000F5E7121D5CBF51F8043B40F8043BAFF314
:100520000080D20724BF11F8013B11F801CB48BF6E
:1005300011F8012B24BF00F8013B00F801CB48BFA4
:1005400000F8012B704710B5203AC0F00B80B1E8DD
:100550001850203AA0E81850B1E81850A0E81850F8
:10056000BFF4F5AF5FEA027C24BFB1E81850A0E801
:10057000185044BF18C918C0BDE810405FEA827C1B
:1005800024BF51F8043B40F8043B08BF7047D20732
:1005900028BF31F8023B48BF11F8012B28BF20F8D3
:1005A000023B48BF00F8012B704702F0FF0343EA0B
:1005B000032242EA024200F002B84FF0000204298E
:1005C000C0F0128010F0030C00F01B80CCF1040C82
:1005D000BCF1020F18BF00F8012BA8BF20F8022BB6
:1005E000A1EB0C0100F00DB85FEAC17C24BF00F85C
:1005F000012B00F8012B48BF00F8012B70474FF08A
:10060000000200B5134694469646203922BFA0E862
:100610000C50A0E80C50B1F12001BFF4F7AF09076E
:1006200028BFA0E80C5048BF0CC05DF804EB89005F
:1006300028BF40F8042B08BF704748BF20F8022BA2
:1006400011F0804F18BF00F8012B704770477047BA
:100650007047000000487047E080002070477047F6
:100660007047704738B504460A4600206946AFF324
:100670000080002808BF38BD02460099204600F0DF
:1006800075F8012038BD012000F08AB8F8B5AFF345
:100690000080054600200C46102000BF0646A81921
:1006A000A0420DD9324669460020AFF30080070012
:1006B00008BF00F075F80098A04218BF0546C4199D
:1006C000FFF7C8FF05600746F01D20F00700461938
:1006D000284600F00AF8B44208BFF8BDA21B314614
:1006E0003868BDE8F84000F041B800210160C0E979
:1006F000011070471020704770B50446051FFFF7C2
:10070000A9FF0068002C14BF446870BD002C18BFFE
:10071000AC423CBF20466468F8D301680A18AA427C
:1007200018BF456003D12A68054611440160286856
:100730004119A1421CBF6C6070BD6168696021688D
:100740000844286070BD10B500F00CF8006810BDBA
:1007500010B5044600F006F8046010BD004870476C
:10076000D880002000487047D880002003464068A9
:100770008C46002818BF88423CBF03464068F8D327
:1007800018681844884207D00CF1030020F00700D5
:10079000001D411A521A0146081D0A60FFF7ACBF3E
:1007A00010B500F039F8BDE8104000F02FB87047E0
:1007B0007546FFF7D3FFAE4605006946534620F065
:1007C0000700854618B020B5FFF7C0FDBDE8204002
:1007D0004FF000064FF000074FF000084FF0000BFD
:1007E00021F00701AC46ACE8C009ACE8C009ACE8B0
:1007F000C009ACE8C0098D46704710B50446AFF398
:1008000000802046BDE81040FFF72BBD002801D036
:1008100000F02AB87047000010B5012805D000216B
:1008200003A000F027F8012010BD09A1F8E700009F
:1008300053494752544D454D3A204F7574206F66C9
:100840002068656170206D656D6F72790000000031
:100850003A2048656170206D656D6F727920636F15
:10086000727275707465640001491820ABBEFEE7B2
:100870002600020070B505460C460A2000E06D1CFB
:1008800000F011F835B128780028F8D102E0641C96
:1008900000F009F814B120780028F8D1BDE87040C4
:1008A0000A20AFF3008008B569468DF800000320E8
:1008B000ABBE08BD9FED221A9FED222A20EE010A51
:1008C000B5EE001A30EE010ABDEEC01A11EE100AA4
:1008D000B5EE400AF1EE10FAB8BF013801EE100A89
:1008E000B8EEC11A30EE410A20EE020ABDEEC01A7F
:1008F0009FED152A11EE100A002130EE021AB1EB1D
:10090000502F4DF20C311CBF0020B0EE410AC0F652
:10091000000101EE100A01EB8001B8EE411A30EE41
:10092000410A91ED001A91ED012AB7EE003A33EE3B
:10093000403A23EE011A20EE020A31EE000A704717
:1009400083F9223E00000044000000C4B0B5B0F8B6
:1009500000C00B889C4553D145884B889D424FD1A0
:1009600013889C454CD153889D4249D143684968BE
:10097000506805FB0CFC0022B2EB9C0F30D04FEA14
:100980009C0200BF93ED000A91ED001A03F1100ED6
:1009900030EE010A80ED000A93ED010A91ED011A93
:1009A00001F1100430EE010A80ED010A93ED020A14
:1009B00091ED021A00F1100530EE010A80ED020AF5
:1009C00093ED030A91ED031A013A30EE010A80ED2E
:1009D000030A734628462146D4D121462846734649
:1009E0001CF003020AD000BFB3EC010AB1EC011AFB
:1009F000013A30EE010AA0EC010AF5D1002000E036
:100A0000FD2040B2B0BD01804280436070470000CD
:100A10002DE9F04F81B02DED028B8EB0B0F800C003
:100A2000B0F802A0D44540F03A810B88FD229C45E5
:100A300040F036814F88BB4240F0328140689FEDE4
:100A4000B08ABCF1000F009000F031814C686FF06B
:100A5000030000EB8C09002700266546CDF828C06E
:100A6000204609940A98401B08D0B1002046FFF7A1
:100A7000C6FD3846013004F10404FBD304F1040B35
:100A8000B5F101084FF07E50206012D0A9EB86012D
:100A90005846FFF7B4FD01205C4600BF0130854297
:100AA00004F10404FAD10136013FB8F1000F4546C4
:100AB000D8D1DDF828C0BCF1000F00F0F8804FEA73
:100AC000CA00043002900998009900EB8A00C0F136
:100AD0000009042000EB8A00ACF1010801EB8A0553
:100AE0004FEA8A03019001F1040B4FF0000E0F460C
:100AF000564600200A460490039300BF0EFB0AF0FE
:100B000002EB800191ED000A0C910999B5EE400AC3
:100B1000F1EE10FA01EB80000D90CDF82080CDE9C8
:100B200006950B922ED10EF1010060450DD20020EA
:100B3000414600BF2A1892ED000AB5EE400AF1EED8
:100B400010FA06D101391844F4D10498012817D0BD
:100B5000D4E0A0EB0900002157F82130146842F8D6
:100B6000043B47F8214001318E42F5D10D9A5146A0
:100B70001368046840F8043B013942F8044BF7D18C
:100B8000012004900C99AAEB0E0991ED008AB9F1AD
:100B9000010F4FF07E5008600DD00120594600BF74
:100BA00091ED000A013080EE080A864281ED000ACC
:100BB00001F10401F4D10D995046CDF814B000BFF5
:100BC00091ED000A013880EE080AA1EC010AF7D184
:100BD000DDF82C800998A9F1010B0022654600BFC1
:100BE000724505D108EB890300EB8A0036E000BFAF
:100BF0000C9998ED008A91ED000ABBF1000F28EEE8
:100C0000000A38EE400A88ED000A17D001230421BB
:100C100007EB010C08EB01049CED000A94ED001AAF
:100C200028EE000A013331EE400A9E4201F1040130
:100C300084ED000AECD108EB010301E008F10403A4
:100C40000D9C5146B4EC011A90ED000A28EE011AF1
:100C500030EE410AA0EC010A0139F3D103EB8E0812
:100C6000013D02F10102BBD1079D02980B9ADDF80C
:100C700020800544039BDDF818900198DDF814B03E
:100C8000DDF828C00432013E0EF1010EA8F1010882
:100C9000A9EB0309074483447FF430AF09E0FD2248
:100CA00050B20EB0BDEC028B01B0BDE8F08F002059
:100CB0000490B5EE408AF1EE10FA4FF00002EFD149
:100CC00004980128ECD00AFB0CF14FF000004FF023
:100CD000000271B1009B00BF93ED000AB5EE400A1F
:100CE000F1EE10FA05D10132914203F10403F3D180
:100CF0000A468A4208BF6FF00400D2E7FB22CFE722
:100D0000000000002DE9F04F85B047880B889F4216
:100D100040F08480B0F800B013889B4540F07E809E
:100D2000B1F802E053889E4578D1D0F8048050682D
:100D300049680190BC0827F0030008EB800604FB1B
:100D40000EF09FED390A07F0030C029101EB001041
:100D50004FEA8E0200210090CDE903E70198DDF80B
:100D600008A0009B00EB8109B0EE401A57464046B0
:100D700074B3554627464046B0EE401A95ED002A1A
:100D800090ED003A154490ED014A23EE022A95EDCC
:100D9000003A154490ED025A31EE021A24EE032A6D
:100DA00095ED003A154490ED036A31EE021A25EEF6
:100DB000032A95ED003A31EE021A26EE032A31EEAF
:100DC000021A013F00F110001544D7D11F463046EA
:100DD000BCF1000F0CD0654690ED002A97ED003A6B
:100DE000043022EE032A31EE021A013D1744F3D1FA
:100DF000A9EC011ABEF1010E0AF1040A03F1040381
:100E0000B2D1DDF80CE0049F714408EB8708BBF118
:100E1000010B06EB8706A1D1002000E0FD2040B2C7
:100E200005B0BDE8F08F00BF00000000B0B5B0F81D
:100E300000C00B889C4553D145884B889D424FD1BB
:100E400013889C454CD153889D4249D143684968D9
:100E5000506805FB0CFC0022B2EB9C0F30D04FEA2F
:100E60009C0200BF93ED000A91ED001A03F1100EF1
:100E700030EE410A80ED000A93ED010A91ED011A6E
:100E800001F1100430EE410A80ED010A93ED020AEF
:100E900091ED021A00F1100530EE410A80ED020AD0
:100EA00093ED030A91ED031A013A30EE410A80ED09
:100EB000030A734628462146D4D121462846734664
:100EC0001CF003020AD000BFB3EC010AB1EC011A16
:100ED000013A30EE410AA0EC010AF5D1002000E011
:100EE000FD2040B2B0BD00002DE9F04FB0F800A0E9
:100EF0004A88924545D142880B889A4241D1D1F81F
:100F000004C046684FEA920802F003094FEA0A1E3D
:100F10004FEA8A014FF0000B624600BFB8F1000FA4
:100F20001AD01546474600BF336828462B607368C1
:100F30000D444350B3686C186B50F56806F110030C
:100F400066186550013F06EB01051E46ECD100EB2B
:100F50000E071E4602E000BF0CEB8B07B9F1000F35
:100F600006D0484656F8043B01383B600F44F9D19F
:100F70000BF1010BBAF1010A02F10402CED10020FB
:100F800000E0FD2040B2BDE8F08F00009FED201A88
:100F90009FED202A20EE010ABDEEC01A11EE100AC4
:100FA000B5EE400AF1EE10FAB8BF013801EE100AB2
:100FB000B8EEC11A30EE410A20EE020ABDEEC01AA8
:100FC0009FED152A11EE100A002130EE021AB1EB46
:100FD000502F4DF20C311CBF0020B0EE410AC0F67C
:100FE000000101EE100A01EB8001B8EE411A30EE6B
:100FF000410A91ED001A91ED012AB7EE003A33EE65
:10100000403A23EE011A20EE020A31EE000A704740
:1010100083F9223E00000044000000C410B5012204
:101020001021024802F0B6FC10BD00000000024092
:1010300010B500221021024802F0ACFC10BD0000E7
:101040000000024010B501221146024802F0A2FC45
:1010500010BD00000004024010B50022012102482A
:1010600002F098FC10BD00000004024010B50446D8
:10107000FFF7DEFF922000F0A3F906229549122027
:1010800000F07EF9FFF7CAFF92484078000200B2F4
:10109000904909780843904908800846B0F9000053
:1010A00000EE100AB8EEC00A8C48D0ED000A20EE1F
:1010B000200AD4ED080A20EE200A84ED000A8548B3
:1010C000C078000200B283498978084382490880C9
:1010D0000846B0F9000000EE100AB8EEC00A7F48DA
:1010E000D0ED000A20EE200AD4ED080A20EE200AF6
:1010F00084ED010A77484079000200B27549097908
:101100000843754908800846B0F9000000EE100A4F
:10111000B8EEC00A7148D0ED000A20EE200AD4EDE6
:10112000080A20EE200A84ED020AFFF795FF082244
:101130006849002000F024F9FFF784FF6548007833
:101140000F284FD166480078F0B36248C07800029B
:1011500000B26049897808435F49088094ED090A24
:101160000846B0F9000000EE900AF8EEE00A5D488B
:1011700090ED001A10EE810A84ED030A554840797B
:10118000000200B25349097908435349088094ED9D
:101190000A0A0846B0F9000000EE900AF8EEE00AEC
:1011A000504890ED001A10EE810A84ED040A494877
:1011B000C079000200B2474989790843464908804E
:1011C00094ED0B0A084600E00DE0B0F9000000EED7
:1011D000900AF8EEE00A434890ED001A10EE810AFA
:1011E00084ED050A44E03B48C078000200B239496A
:1011F00089780843384908800846B0F9000000EEB5
:10120000100AB8EEC00A3748D0ED000A20EE200AD6
:1012100084ED030A2F484079000200B22D49097974
:1012200008432D4908800846B0F9000000EE100A76
:10123000B8EEC00A2B48D0ED000A20EE200A84ED5B
:10124000040A2448C079000200B22249897908437F
:10125000214908800846B0F9000000EE100AB8EEF7
:10126000C00A2048D0ED000A20EE200A84ED050ACD
:10127000FFF7DEFEA22000F0A3F80222154922208B
:1012800000F07EF8FFF7CAFE12480078C00011494E
:10129000497840EA6110104908800846B0F900001A
:1012A000B0F5806F05DB08460088A0F5006000B24D
:1012B00008800948B0F9000000EE100AF8EEC00AF4
:1012C000B4EE001AB3EE070A00EE810A84ED070AB5
:1012D00010BD0000560100205E0100201801002012
:1012E000280100201C01002070B504460D461C4852
:1012F000046000201B49087009F0F8FA19490978C0
:1013000008431849087009F0A7FB164909780843F3
:10131000144908701DB1144800F0A4F91CE09FEDB9
:10132000130A114880ED090A9FED110A80ED0A0A9F
:101330009FED0F0A80ED0B0A9FED0E0A80ED0C0A5F
:1013400090ED0C0ADFED0C0A80EE801A80ED081A91
:101350009FED0A0A80ED060A0248007870BD000081
:1013600060010020220100201C1C0020AC38223B20
:10137000B016CE393F161B41C3F51C410000204278
:1013800070B506460C46154646F0800000F018F889
:1013900006E0552000F014F82070641C681EC5B2E9
:1013A000002DF6D170BD70B504460D4644F08000A6
:1013B00000F006F8552000F003F8287070BD00001A
:1013C00001B582B04FF47A70012301AA02A90090FE
:1013D0000348006803F03AFA9DF804000EBD0000CF
:1013E0006001002070B505460C462846FFF7E8FF6F
:1013F0002046FFF7E5FF70BDD2ED020A92ED021A1A
:10140000B6EE000A00EEC10AD2ED030A92ED031A0D
:1014100000EEC10AD0ED000A20EE200AD2ED010A4A
:1014200092ED021A60EE810A92ED001AD2ED031AD3
:1014300041EE610A90ED011A00EE810AD2ED010A37
:1014400092ED031A60EE810A92ED001AD2ED021AB3
:1014500041EE210A90ED021A00EE810AF0EE000A38
:1014600020EE200A81ED000A92ED010AD2ED020A77
:1014700020EE200AD2ED000A92ED031A00EE810A56
:10148000D0ED000A60EE200A92ED011AD2ED011AA9
:10149000B6EE000A01EE610AD2ED031A92ED032ABC
:1014A000B0EE401A01EEC21AD0ED011AB0EE600A99
:1014B00001EE210AD2ED020A92ED031A60EE810AD2
:1014C00092ED001AD2ED011A41EE610A90ED021A76
:1014D00000EE810AF0EE000A20EE200A81ED010AFA
:1014E00092ED010AD2ED030A20EE200AD2ED000AA5
:1014F00092ED021A00EEC10AD0ED000A20EE200A99
:10150000D2ED020A92ED031A60EE810A92ED001A02
:10151000D2ED011A41EE210A90ED011A00EE810A86
:1015200092ED011AD2ED011AF6EE000A41EE610ABF
:1015300092ED021AD2ED021A41EE610A90ED021A02
:1015400000EE810AF0EE000A20EE200A81ED020A88
:10155000704700BFFEE7000010B5024801F066FBCF
:1015600010BD00002C0C002010B5024801F05EFBFD
:1015700010BD0000540C0020F8B507460C46154677
:101580001E464FF400700D49086000208860C86056
:1015900008200861380A0A4908704F70200A8870CC
:1015A000CC70280A08714D71300A8871CE716B4673
:1015B0000A460249034801F03EF9F8BDE01B00204D
:1015C000EA0000202C0C002038B505460C4640F2FD
:1015D000FF100D49086000208860C860082008617D
:1015E000280A0A4908704D70200A8870CC700020C3
:1015F000087148718871C8716B460A4602490448EF
:1016000001F019F938BD0000B01B0020DA000020FD
:101610002C0C0020F8B506460C46154640F2FF108B
:101620000D49086000208860C8600820086100201B
:101630000A4908704870300A8870CE70200A087114
:101640004C71280A8871CD716B460A4602490448DC
:1016500001F0F1F8F8BD0000C81B0020E2000020F6
:10166000540C002070B52DED048B88B0044600208A
:101670000690079000F06AFEFE4880ED000A00BF69
:1016800000F064FEFB48D0ED000A30EE600AF2EE96
:10169000040AB4EEE00AF1EE10FA14DD9FEDF60A4A
:1016A00084ED090A9FEDF50A84ED0A0A9FEDF30A1D
:1016B00084ED0B0A9FEDF20A84ED0C0A9FEDF10A0E
:1016C00084ED060A55E29FEDF00A00F0FBFD9FED68
:1016D000EF0A84ED0C0A9FEDED0A84ED090A9FEDF7
:1016E000EB0A84ED0A0A9FEDE90A84ED0B0A002655
:1016F00073E1FFF79DFC9220FFF762FE062206A928
:101700001220FFF73DFEFFF789FC9DF8190000024B
:1017100000B29DF8181040EA010500EE105AB8EE2C
:10172000C00ADB48D0ED000A20EE200A84ED000A52
:101730009DF81B00000200B29DF81A1040EA010556
:1017400000EE105AB8EEC00AD148D0ED000A20EEE3
:10175000200A84ED010A9DF81D00000200B29DF8E8
:101760001C1040EA010500EE105AB8EEC00AC84845
:10177000D0ED000A20EE200A84ED020AD4ED000A22
:1017800060EEA00A94ED011AD4ED011A41EE210A8F
:1017900094ED021AD4ED021A41EE210AB0EE600A6D
:1017A00009F070F8B0EE408A94ED0C0A30EE080AA9
:1017B00084ED0C0AFFF750FC082206A90020FFF771
:1017C000DFFDFFF73FFC9DF818000F2850D19DF872
:1017D0001B00000200B29DF81A1040EA010500EE5D
:1017E000105AB8EEC00AAB48D0ED000A20EE200A2D
:1017F00084ED030A94ED090AD4ED030A30EE200AC1
:1018000084ED090A9DF81D00000200B29DF81C102D
:1018100040EA010500EE105AB8EEC00A9D48D0ED2E
:10182000000A20EE200A84ED040A94ED0A0AD4EDA1
:10183000040A30EE200A84ED0A0A9DF81F00000217
:1018400000B29DF81E1040EA010500EE105AB8EEF5
:10185000C00A9048D0ED000A20EE200A84ED050A67
:1018600094ED0B0AD4ED050A30EE200A84ED0B0A44
:1018700006BBF0EE488AB0EE489A002017E004F16B
:101880000C0101EB800191ED000A03A901EB80013D
:1018900081ED000A04F10C0101EB800191ED000AD9
:1018A000694601EB800181ED000A411CC8B20328A2
:1018B000E5DB49E0B4EEE88AF1EE10FA01DDF0EE86
:1018C000488AB4EEC98AF1EE10FA01D2B0EE489A15
:1018D000002037E004F10C0101EB800191ED000ADA
:1018E00003A901EB8001D1ED000AB4EEE00AF1EEAC
:1018F00010FA0ADD04F10C0101EB800191ED000A00
:1019000003A901EB800181ED000A04F10C0101EB58
:10191000800191ED000A694601EB8001D1ED000ADA
:10192000B4EEE00AF1EE10FA0AD204F10C0101EB78
:10193000800191ED000A694601EB800181ED000A0A
:10194000411CC8B20328C5DB38EEC90A524880EDF5
:10195000000A002012E003A901EB800191ED000ACA
:10196000694601EB8001D1ED000A30EE600A4B4977
:1019700001EB800181ED000A411CC8B20328EADBBB
:10198000454890ED000AF6EE000AB4EEE00AF1EEEA
:1019900010FA1BDC414890ED000ADFED410AB4EE7D
:1019A000E00AF1EE10FA11DC90ED010ADFED3C0ADD
:1019B000B4EEE00AF1EE10FA08DC90ED020ADFED79
:1019C000380AB4EEE00AF1EE10FA00DD0AE09FED0D
:1019D000350A00F077FC701C86B2334800888642D6
:1019E000FFF687AE00BFD4ED0C0A2F48008800EE4A
:1019F000100AB8EE400A80EE801A84ED0C1A00201E
:101A000015E004F1240101EB8001D1ED000A264923
:101A1000098800EE101AB8EE400A80EE801A04F130
:101A2000240101EB800181ED001A411CC8B203289A
:101A3000E7DBFFF7FDFAA220FFF7C2FC022206A9AE
:101A40002220FFF79DFCFFF7E9FA9DF81800C0007F
:101A50009DF8191040EA6115B5F5806F02DBA5F518
:101A6000006005B200EE105AF8EEC00AB4EE001A9B
:101A70001CE0000050010020AC38223BB016CE39EB
:101A80003F161B41000020420AD7A33B0000000084
:101A9000180100201C01002024010020101C00203F
:101AA0009A99193E6F12033A54010020B3EE070AC7
:101AB00000EE810A84ED060A34480088401C00B21A
:101AC00032490880324890ED000AF6EE000AB4EE82
:101AD000E00AF1EE10FA3FF7D3AD94ED0C0ADFED1A
:101AE0002D0A30EE600AB0EEC00AF6EE000AB4EE3F
:101AF000E00AF1EE10FAEEDC274890ED000A5FED07
:101B0000180AB4EEE00AF1EE10FAE4DC90ED010AF6
:101B10005FED1D0AB4EEE00AF1EE10FADBDC90EDA9
:101B2000020A5FED210AB4EEE00AF1EE10FAD2DC0F
:101B300094ED090AB0EEC00ADFED180AB4EEE00A2F
:101B4000F1EE10FAC7DC94ED0A0AB0EEC00ADFED40
:101B5000130AB4EEE00AF1EE10FABCDC94ED0B0AC5
:101B6000B0EEC00ADFED0D0AB4EEE00AF1EE10FAB5
:101B7000B1DC00BF94ED0C0ADFED090A80EE801A9B
:101B800084ED081A08B0BDEC048B70BD2A0100205A
:101B900024010020CDCC1C41101C00200AD7233C7E
:101BA000C3F51C412DE9F0412DED028B05460C4695
:101BB0001746B0EE408A1E4600EE106AB8EEC00A24
:101BC000DFED280A20EE200AF0EE408AB0EE680A27
:101BD000FEF770FE244880ED010AB0EE680AFFF7B8
:101BE000D5F9214880ED000AD0ED010A00EE105A27
:101BF000B8EEC00A60EE800A90ED001A00EE104ABE
:101C0000B8EEC00A40EE010ABDEEE00A10EE100A7E
:101C100000B2154908810846D0ED000A684200EE7E
:101C2000100AB8EEC00A60EE800A084690ED011A6C
:101C300000EE104AB8EEC00A40EE010ABDEEE00A1E
:101C400010EE100A00B248810A46B2F90A10B2F941
:101C50000800B0EE480A3A4600F098F9BDEC028B55
:101C6000BDE8F08135FA8E3C381600202DE9F041B0
:101C70002DED028B06460F46F0EE408A14461D46B7
:101C800000EE105AF8EEC00A00EE104AB8EEC00A94
:101C9000144807F071FABDEEC00A10EE100A00B247
:101CA00008EE100A10484068B0F9020000EE900AF1
:101CB000F8EEE00AB0EE600AF8EEC80A0B4807F04A
:101CC0005BFABDEEC00A10EE100A0FFA80F8B0EE13
:101CD000680A42463946304600F058F9BDEC028B9E
:101CE000BDE8F08144160020DC160020901600208C
:101CF00000B587B0012300221946204805F0B4FF43
:101D00000123002202211D48A03005F0ADFF012370
:101D1000002203211A4805F0A7FF01230022042115
:101D20001748A03005F0A0FF00201649088148811F
:101D30009FED150A084680ED010A9FED130A80ED1C
:101D4000000A124A07CA04AB07C3104A0C3207CA7A
:101D500001AB07C3DFED0E0A9FED0D0A04AA0021B7
:101D60000C4807F001FBDFED0A0A9FED090A01AA02
:101D70000021094807F0F8FA07B000BDB8130020A9
:101D8000F8140020381600200000000034D20008AB
:101D900000409C4544160020901600202DED048B39
:101DA0009FED740AB0EE408A9FED720AF0EE408A11
:101DB0009FED700AB0EE409A00BF00BF00BF00BFA9
:101DC0006D48C07A00287CD0012804D0022879D040
:101DD000032878D13FE00120684908706648B0F9CF
:101DE0000000800000EE100AB8EEC00AB0EE408A93
:101DF0006148B0F90200800000EE100AB8EEC00A97
:101E0000F0EE408A9FED5E0AB0EE409A5D4808F021
:101E100003FA00EE100AB8EEC00A5B4880ED000A33
:101E200090ED000ABDEEC00A10EE100A03B2B7EE44
:101E3000000AFDEEC90A10EE900A02B2FDEEE80AB1
:101E400010EE900A01B2FDEEC80A10EE900A00B240
:101E5000FFF7A8FE88E00320484908704648B0F91B
:101E60000000800000EE100AB8EEC00AB0EE408A12
:101E70004148B0F90200800000EE100AB8EEC00A36
:101E8000F0EE408A3C48B0F90800800000EE100AED
:101E9000B8EEC00AB0EE409A3A4808F0BDF900EE3C
:101EA000100AB8EEC00A384880ED000A002390ED11
:101EB000000ABDEEC00A10EE100A02B2B7EE000A28
:101EC00002E043E00DE04BE0FDEEE80A10EE900A80
:101ED00001B2FDEEC80A10EE900A00B2FFF7C6FE8E
:101EE00042E00220254908702348B0F90000800034
:101EF00000EE100AB8EEC00AB0EE408A1E48B0F9F3
:101F00000200800000EE100AB8EEC00AF0EE408A2F
:101F10001948B0F90800800000EE100AB8EEC00AB7
:101F2000B0EE409AB7EE000AFDEEC90A10EE900A34
:101F300002B2FDEEE80A10EE900A01B2FDEEC80A08
:101F400010EE900A00B200F021F80DE000200B49DD
:101F5000087000231A4619461846FFF70DFB00BF0C
:101F600000200649087000BF00BF012009F082FA76
:101F700026E7000000000000B41800202800002020
:101F800000401C45DC1600203800002070B52DED07
:101F9000068B05460E461446B0EE408A01215C4889
:101FA00005F034FE01215A48A03005F02FFE012132
:101FB000584805F02BFE01215648A03005F026FEBA
:101FC000A81900EE100AF8EEC00A00EE104AB8EEAA
:101FD000C00A40EE480ABDEEE00A10EE100A00B258
:101FE00008EE900AA81B00EE100AF8EEC00A00EEF8
:101FF000104AB8EEC00A40EE480ABDEEE00A10EE04
:10200000100A00B209EE100AA81900EE100AF8EE44
:10201000C00A00EE104AB8EEC00A40EE080AB1EE5F
:10202000600ABDEEC00A10EE100A00B209EE900A76
:10203000A81B00EE100AF8EEC00A00EE104AB8EE37
:10204000C00A40EE080AB1EE600ABDEEC00A10EE0A
:10205000100A00B20AEE100A2D484068B0F90200DA
:1020600000EE900AF8EEE00AB0EE600AF8EEE80A38
:102070002748083005F002FF274908802448D0F897
:10208000A400B0F9020000EE900AF8EEE00AB0EE0B
:10209000600AF8EEC90A1F48983805F0EFFE1F499C
:1020A00008801B48D0F84401B0F9020000EE900A05
:1020B000F8EEE00AB0EE600AF8EEE90A15480830DA
:1020C00005F0DCFE164908801148D0F8E401B0F9AB
:1020D000020000EE900AF8EEE00AB0EE600AF8EEB8
:1020E000CA0A0C48A83005F0C9FE0E490880084607
:1020F000B0F900300A48B0F900200848B0F90010E3
:102100000548B0F90000FFF737FABDEC068B70BD4B
:10211000B8130020F8140020A0000020A200002026
:10212000A4000020A600002010B5024801F044F9E8
:1021300010BD0000D80F002010B5024801F03CF996
:1021400010BD0000D00C002010B5024801F034F999
:1021500010BD0000300D002010B5024801F02CF930
:1021600010BD0000E80D002010B5024801F024F970
:1021700010BD0000780F002010B5024801F01CF9D6
:1021800010BD0000480E00200146087810381823C2
:10219000B0FBF3F20848805CC865032A05D90868DB
:1021A0006FF30900001D886503E008686FF30900FC
:1021B0008865886D70470000E4D100080146002062
:1021C0008A6A8B69CBB932B1012A0DD0022A03D0B9
:1021D000032A10D10EE000BFCB6A03F08073B3F185
:1021E000807F00D1012007E0CB6AB3F1C07F00D12E
:1021F000012001E000E000BF34E08B69B3F5005F2F
:102200001AD132B1012A07D0022A03D0032A11D1F0
:102210000AE000BF01200EE0CB6A03F08073B3F147
:10222000807F00D1012006E0CB6AB3F1C07F00D1EE
:10223000012000E000BF15E032B1012A05D0022ADA
:1022400004D0032A0CD103E000BF00BF012008E046
:10225000CB6A03F08073B3F1807F00D1012000E0EE
:1022600000BF00BF704730B50468246824F48024A0
:1022700005682C60046863608468402C04D104689D
:10228000A2600468E16003E00468A1600468E260A1
:1022900030BD000008B50848406800900749009824
:1022A0000968884204D206480068401C0449086056
:1022B00002490098086008BD001000E0800100207D
:1022C0007C0100200C494868F0EE400A00BF0A4932
:1022D0004968091A01EE101AF8EE411A074991ED02
:1022E000001AB8EE411A20EE811AF4EEC11AF1EE8E
:1022F00010FAECD370470000001000E070010020DD
:1023000010B52DED028B82B004460E484068019056
:1023100020680199081A00EE100AF8EE400A0A48EF
:1023200090ED000AB8EE400A80EE801AB0EE418AC5
:1023300001982060FFF7AEFFB0EE480A02B0BDEC96
:10234000028B10BD001000E07001002010B52DEDD3
:10235000028B00F059F80F4890ED000AB8EE400AE1
:10236000808800EE900AF8EE600A9FED0B1A00EEEE
:10237000810A0848C08800EE900AF8EE600A9FEDD6
:10238000071A00EE810AB0EE408AB0EE480ABDECB2
:10239000028B10BD680100206F12833ABD3786356D
:1023A0001249096841F08071104A11600021104AF9
:1023B00051601146096841F0010111600D49414326
:1023C0000D4A1160114609684FF47A72B1FBF2F1BF
:1023D0000A4A116008490968064AB1FBF2F1084A45
:1023E00011600021074A116070470000FCED00E019
:1023F000001000E040420F00700100207401002036
:10240000780100207C01002038B529484068009000
:10241000FFF740FF274800684FF0FF31A0FB013174
:102420000098181841F10001234A03C223480023F1
:102430002149026803C9FDF7CAFF214A03C22048A7
:102440000CC81E4800680024A2FB001503FB0050C6
:1024500002FB04021848D0E90030591A60EB020070
:10246000184AC2E900101648006817490860174862
:1024700000231449026803C9FDF7A9FF12498880A7
:10248000084680881149096841430E48D0E9003068
:10249000591A60F100000E4AC2E900100D480023ED
:1024A0000B49026803C9FDF792FF0749C88038BD90
:1024B000001000E07C010020880100207001002055
:1024C0009001002098010020680100207401002084
:1024D000A0010020780100207047D2ED020A92EDA1
:1024E000021AB6EE000A00EEC10AD2ED030A92ED1E
:1024F000031A00EEC10AD0ED000A20EE200AD2ED48
:10250000010A92ED021A60EE810A92ED001AD2EDF4
:10251000031A41EE210A90ED011A00EE810AD2ED74
:10252000010A92ED031A60EE810A92ED001AD2EDD3
:10253000021A41EE610A90ED021A00EE810AF0EEF5
:10254000000A20EE200A81ED000A92ED010AD2ED88
:10255000020A20EE200AD2ED000A92ED031A00EEE4
:10256000C10AD0ED000A60EE200A92ED011AD2ED08
:10257000011AB6EE000A01EE610AD2ED031A92EDDD
:10258000032AB0EE401A01EEC21AD0ED011AB0EEE5
:10259000600A01EE210AD2ED020A92ED031A60EE02
:1025A000810A92ED001AD2ED011A41EE210A90ED56
:1025B000021A00EE810AF0EE000A20EE200A81EDF8
:1025C000010A92ED010AD2ED030A20EE200AD2EDB3
:1025D000000A92ED021A00EE810AD0ED000A20EE08
:1025E000200AD2ED020A92ED031A60EE810A92ED02
:1025F000001AD2ED011A41EE610A90ED011A00EEC7
:10260000810A92ED011AD2ED011AF6EE000A41EEAE
:10261000610A92ED021AD2ED021A41EE610A90EDC2
:10262000021A00EE810AF0EE000A20EE200A81ED87
:10263000020A704772B600BFFEE7000010B5FF2324
:10264000002201210B4805F031FDFF230022022169
:10265000094805F02BFD4FF47A60084908609FEDAA
:10266000080A084880ED000A9FED050A064880ED3B
:10267000000A10BDDC160020C8170020A8000020AA
:1026800000000000AC000020B000002000BF564851
:10269000C07A00287ED0012804D0022864D0032804
:1026A00079D130E00120514908704F49B1F9040057
:1026B00007F0DAFD4E4908800846B0F900004D49A0
:1026C00008804D49B1F978004A49B1F9001007F086
:1026D000F7FD4A4908804448C088494909880844A8
:1026E00000B2484908800846B0F9000006F070FEC4
:1026F000454908800846B0F900104048B0F900008C
:10270000FEF762FF6AE00320384908703649B1F9E4
:10271000040007F0A9FD364908800846B0F900001A
:10272000344908803449B1F978003249B1F90010D0
:1027300007F0C6FD314908802B48C0883049098818
:10274000084400B22F4908800846B0F9000006F09E
:102750003FFE2D4908800846B0F900102748B0F91F
:102760000000FEF731FF39E00220204908701E49C1
:10277000B1F9040007F078FD1D4908800846B0F95A
:1027800000001C4908801C49B1F978001949B1F9C9
:10279000001001E01DE01BE007F092FD17490880E2
:1027A0001148C08816490988084400B215490880B4
:1027B0000846B0F9000006F00BFE134908800846F1
:1027C000B0F900100D48B0F90000FEF7FDFE05E07D
:1027D00000BF00210846FEF7F7FE00BF00BF0A2039
:1027E00008F048FE53E70000B41800203C00002029
:1027F00048000020420000208010002044000020FB
:1028000040000020460000203E00002010B5024697
:1028100092F82030012B01D0022B06D110684069BC
:10282000084314686061002010BD506A40F48020A5
:1028300050620120F8E7F0B504460D461E4694F8B4
:10284000207020688368A86800B900E000BF012FED
:1028500001D0022F7CD103F0806030B903F000601A
:1028600018B903F08050002873D0C3F30161022926
:1028700005D9606A40F4000060620120F0BD0120CB
:1028800088403060A86860B9B5F800C0E86840EAE0
:102890004C5C206800F5C07000EB0110C0F800C06F
:1028A0000FE0D5E901C040EACC00D5F80CC040EA01
:1028B0000C00D4F800C00CF5C07C0CEB011CCCF86B
:1028C0000000D5F810C0206800F5C07000EB0110C2
:1028D000C0F804C0287D01280ED1206800F5C07022
:1028E00000EB0110406840F4807C206800F5C07067
:1028F00000EB0110C0F804C0D079000692F806C0C1
:1029000040EA0C4092F805C040EA0C2C10794CEAE1
:10291000000C206800F5C07000EB0110C0F80CC07E
:10292000D078000692F802C040EA0C4092F801C04C
:1029300040EA0C2092F800C040EA0C00D4F800C035
:102940000CF5C07C0CEB011CCCF80800206801E001
:1029500016E00FE000F5C07000EB0110006840F0D9
:10296000010C206800F5C07000EB0110C0F800C039
:10297000002083E7606A40F40010606201207DE778
:10298000606A40F480206062012077E7F0B5044679
:102990000A46216894F82050012D01D0022D7ED1E5
:1029A000424901F50071086840F0010008600868BC
:1029B00020F47C5008600868566A40EA06200860E7
:1029C000107D00F01F06012000FA06F3C869984345
:1029D000C861A1F50071D069C8B9D1F80C0298435B
:1029E000C1F80C02908880B2968940EA064601F54B
:1029F0001070576940F83760108880B2168940EA35
:102A0000064601F51070576900EBC7004660D069B3
:102A1000012819D1D1F80C021843C1F80C02908892
:102A200080B2168840EA064601F51070576940F8F2
:102A30003760908980B2168940EA064601F5107029
:102A4000576900EBC7004660906928B9D1F80402C5
:102A50009843C1F8040204E0D1F804021843C1F815
:102A60000402106928B9D1F814029843C1F814027D
:102A700004E0D1F814021843C1F81402106A0128C6
:102A800004D1D1F81C021843C1F81C02D1F800028D
:102A900020F00100C1F800020020F0BDFFE7606AED
:102AA00040F4802060620120F7E7000000640040ED
:102AB000704770B5044694F82050012D01D0022DC6
:102AC0007DD151B92068C06800F0030080B9606A08
:102AD00040F400106062012070BD2068006900F0C1
:102AE000030028B9606A40F4001060620120F3E737
:102AF000206800F5D87000EB0110006800F00400B9
:102B00009060906840B9206800F5D87000EB011023
:102B10000068400D106007E0206800F5D87000EBF9
:102B200001100068C0085060206800F5D87000EB04
:102B30000110006800F00200D060206800F5D87035
:102B400000EB0110406800F00F001061206800F5F4
:102B5000D87000EB0110406800F47F40000A9061DB
:102B6000206800F5D87000EB01104068000C50613F
:102B7000206800F5D87000EB01108068187020689C
:102B800000F5D87000EB0110806800F47F40000A67
:102B90005870206800F5D87000EB0110806800F4D0
:102BA0007F00000C9870206800F5D87000EB0110D1
:102BB0008068000ED870206800F5D87000E02FE023
:102BC00000EB0110C0681871206800F5D87000EBA8
:102BD0000110C06800F47F40000A5871206800F5B9
:102BE000D87000EB0110C06800F47F00000C9871F1
:102BF000206800F5D87000EB0110C068000ED87195
:102C000031B92068C06840F020002668F06005E017
:102C10002068006940F020002668306100205BE7F2
:102C2000606A40F480206062012055E72DE9F05F82
:102C300004460025206846692068D0F80490206882
:102C400087682068D0F80CA02068D0F810B0206801
:102C5000D0F8188006F00100002855D007F00100D8
:102C6000C0B101202168886007F0020018B1204639
:102C700000F09BFB0EE007F0040010B145F4006586
:102C800008E007F0080010B145F4805502E0204646
:102C900000F08AFB07F48070C8B14FF4807021689F
:102CA000886007F4007018B1204600F080FB0EE049
:102CB00007F4806010B145F4005508E007F40060A7
:102CC00010B145F4804502E0204600F06FFB07F4A8
:102CD0008030C8B14FF480302168886007F400303C
:102CE00018B1204600F065FB0EE007F4802010B11B
:102CF00045F4004508E007F4002010B145F48035A4
:102D000002E0204600F054FB06F0080038B10AF05B
:102D1000100020B145F4007510202168C86006F04D
:102D2000040040B10AF0080028B108202168C860FA
:102D3000204600F00DFA06F0020038B12068C068A5
:102D400000F0030010B1204600F004FA06F0400045
:102D500038B10BF0100020B145F4806510202168D7
:102D6000086106F0200040B10BF0080028B10820EF
:102D700021680861204600F06BFA06F0100038B1B7
:102D80002068006900F0030010B1204600F062FAEC
:102D900006F4003040B109F0100028B1102021687D
:102DA0004860204600F0D0FA06F4803040B109F0C7
:102DB000080028B1082021684860204600F0FAFA8F
:102DC00006F4004088B309F0040078B306F480707C
:102DD00020B108F0010008B145F0010506F40070CB
:102DE00020B108F0020008B145F0020506F4806049
:102DF00020B108F0040008B145F0040506F40060B5
:102E0000A0B108F0700088B108F07000402817D019
:102E100006DC10280BD020280CD0302819D10CE06B
:102E2000502810D0602814D110E01DE019E045F0C2
:102E300008050FE045F010050CE045F0200509E01D
:102E400045F0400506E045F0800503E045F4807557
:102E500000E000BF00BF2068806920F0700021689A
:102E600088610420216848602DB1606A284360624F
:102E70002046FFF71DFEBDE8F09F70B504460CB973
:102E8000012070BD94F8200010B9204600F0B0F881
:102E90002068006840F001002168086000F080FDB3
:102EA00005460DE000F07CFD401B0A2808D9606A49
:102EB00040F400306062052084F820000120E0E743
:102EC0002068406800F001000028EBD0206800680E
:102ED00020F002002168086000F062FD05460DE068
:102EE00000F05EFD401B0A2808D9606A40F40030FB
:102EF0006062052084F820000120C2E72068406855
:102F000000F002000028EBD1207E012806D12068C5
:102F1000006840F080002168086005E020680068D3
:102F200020F0800021680860607E012806D12068BA
:102F3000006840F040002168086005E020680068F3
:102F400020F0400021680860A07E012806D120689A
:102F5000006840F020002168086005E020680068F3
:102F600020F0200021680860E07E012806D120685A
:102F7000006820F010002168086005E02068006803
:102F800040F0100021680860207F012806D12068E9
:102F9000006840F008002168086005E020680068CB
:102FA00020F0080021680860607F012806D12068B1
:102FB000006840F004002168086005E020680068AF
:102FC00020F0040021680860D4E902010843216967
:102FD0000843616908436168491E08432168C86164
:102FE00000206062012084F82000002049E70000F2
:102FF00010B586B00446142101A8FDF700FB4E4928
:103000002068884241D14D480068401C4B49086007
:103010000846006801280FD100BF002000904848F2
:10302000006840F00070464908600846006800F0FB
:103030000070009000BF00BF00BF0020009040481B
:103040001038006840F008003D4910390860084613
:10305000006800F00800009000BF00BF032001904E
:103060000220029000200390032004900920059084
:1030700001A9344800F094FB00220521142000F03F
:10308000D3FE142000F0C0FE54E02F49206888428F
:1030900050D100BF002000902948006840F08060B7
:1030A000274908600846006800F08060009000BF73
:1030B00000BF22480068401C20490860084600689C
:1030C00001280FD100BF002000901D48006840F08B
:1030D00000701B4908600846006800F0007000900E
:1030E00000BF00BF00BF00200090154810380068E6
:1030F00040F002001249103908600846006800F0EC
:103100000200009000BF00BF6020019002200290EA
:1031100000200390032004900920059001A90B488A
:1031200000F03EFB00220521412000F07DFE412001
:1031300000F06AFE06B010BD0064004014000020DC
:1031400040380240000C0240006800400004024089
:103150007047000030B589B004463A48844201D037
:1031600009B030BD2068C068C0F3001018B110204D
:103170002168C860F4E76B4602AA00212046FFF7E9
:1031800098FC054605B1EBE70298A0F2012006285D
:1031900054D2DFE800F003040506070800BF00BFB3
:1031A00000BF00BF00BF0298401E274908700846B4
:1031B0000078092800DB42E02348007800EB80001B
:1031C000224931F8100000B21F49097801EB810152
:1031D0001E4A02EB410108819DF801009DF8001094
:1031E00040EA01201849097801EB810122F8110019
:1031F0009DF803009DF8021040EA012000B2124938
:10320000097801EB810102EB410148809DF805003E
:103210009DF8041040EA012000B20B49097801EB47
:10322000810102EB410188809DF80600064909787A
:1032300001EB810102EB4101887100E000BF00BF9A
:1032400000BF8DE72C0C002002010020541B002041
:103250007047000030B589B004463848844201D038
:1032600009B030BD20680069C0F3001018B110200B
:1032700021680861F4E76B4602AA01212046FFF7A6
:1032800018FC054605B1EBE70298A0F2062020B134
:10329000012803D002284CD101E000BF00BF28491B
:1032A0000298087008460078092800DB42E02448AC
:1032B000007800EB8000234931F8100000B220496B
:1032C000097801EB81011F4A02EB410108819DF859
:1032D00001009DF8001040EA01201949097801EB2E
:1032E000810122F811009DF803009DF8021040EAC8
:1032F000012000B21249097801EB810102EB410182
:1033000048809DF805009DF8041040EA012000B2B5
:103310000B49097801EB810102EB410188809DF89E
:1033200006000749097801EB810102EB4101887130
:1033300000E000BF00BF00BF92E70000540C002077
:1033400003010020541B0020704770B5044694F818
:103350002000012822D1022084F820002068006883
:1033600020F001002168086000F01AFB05460DE01E
:1033700000F016FB401B0A2808D9606A40F40030B0
:103380006062052084F82000012070BD206840683C
:1033900000F001000028EBD16062F6E7606A40F4BB
:1033A000002060620120F0E7704770477047704767
:1033B0007047704770470000F8B504460020009041
:1033C0008C4800684FF41651B0FBF1F7A56D2E68DC
:1033D00094F85C1008208840304098B1206800685C
:1033E00000F0040070B12068006820F0040021683B
:1033F000086094F85C1008208840A860606D40F078
:103400000100606594F85C1001208840304068B18C
:103410002068406900F0800040B194F85C10012001
:103420008840A860606D40F00200606594F85C1010
:1034300004208840304068B12068006800F0020035
:1034400040B194F85C1004208840A860606D40F0A2
:103450000400606594F85C1010208840304078B318
:103460002068006800F0080050B394F85C10102049
:103470008840A8602068006800F4802080B120683F
:10348000006800F4002028B9206CC8B12046216CE7
:10349000884715E0A06C98B12046A16C88470FE0E2
:1034A0002068006800F4807028B92068006820F067
:1034B000080021680860206C10B12046216C884704
:1034C00094F85C10202088403040002865D02068A7
:1034D000006800F0100000285FD094F85C102020F5
:1034E0008840A86094F83500052828D12068006835
:1034F00020F01600216808602068406920F08000F4
:1035000021684861206C08B9A06C28B12068006867
:1035100020F008002168086094F85C103F20884083
:10352000A860012084F8350000BF002084F8340032
:1035300000BF206D10B12046216D8847F8BD20687E
:10354000006800F4802080B12068006800F400204A
:1035500028B9606C10B12046616C88471DE0E06BB3
:10356000D8B12046E16B884717E02068006800F476
:10357000807068B92068006820F010002168086039
:10358000012084F8350000BF002084F8340000BF1B
:10359000E06B10B12046E16B8847606D38B3606D19
:1035A00000F00100F0B1052084F8350020680068C3
:1035B00020F001002168086000BF0098401C0090C6
:1035C000B84200D905E02068006800F0010000283A
:1035D000F3D100BF012084F8350000BF002084F83B
:1035E000340000BFE06C10B12046E16C884700BF9A
:1035F000A4E70000240000202DE9F0410446002546
:1036000000F0CEF9074614B90120BDE8F081606AE8
:1036100000B100BF022084F8350000BF002084F80C
:10362000340000BF2068006820F0010021680860B5
:103630000AE000F0B5F9C01B052805D92020606517
:10364000032084F83500E0E72068006800F00100FE
:103650000028EED12068056821480540D4E9010121
:103660000843E16808432169084361690843A16987
:103670000843E1690843216A08430543606A042856
:1036800003D1D4E90B010843054320680560206895
:10369000456925F00705606A0543606A04280DD175
:1036A000A06A0543E06A48B12046FEF787FD28B1CD
:1036B00040206065012084F83500A6E72068456158
:1036C0002046FEF761FD064694F85C103F208840D6
:1036D000B06000206065012084F83500002094E788
:1036E0003F8010F02DE9F04704460D4616461F4670
:1036F0004FF00008D4F8589000BF94F83400012827
:1037000002D10220BDE8F087012084F8340000BF18
:1037100094F83500012825D1022084F835000020D6
:1037200060653B46324629462046FEF79CFD94F8EC
:103730005C103F208840C9F808002068006840F00D
:10374000160021680860206C28B12068006840F0ED
:103750000800216808602068006840F001002168C6
:10376000086006E000BF002084F8340000BF4FF07E
:1037700002084046C6E7000070B5044600F010F9A4
:1037800006462546681C10B104480078054400BF71
:1037900000F006F9801BA842FAD370BD200000207B
:1037A000F8B502460B460025002400200021D6E093
:1037B000012606FA01F51E6806EA0504AC4274D13A
:1037C0001E7906F00306012E04D01E7906F00306CA
:1037D000022E13D190684F000326BE40B0434F0025
:1037E000DE68BE4030439060506801268E40B04392
:1037F0001E79C6F300168E40304350601E7906F0E5
:103800000306032E09D0D0684F000326BE40B04304
:103810004F009E68BE403043D0601E7906F003061C
:10382000022E13D1CF0802F1200656F827004E07CA
:10383000F70E0F26BE40B0434F07FF0E1E69BE4075
:103840003043CF0802F1200646F8270010684F00E9
:103850000326BE40B0431E7906F003064F00BE406B
:10386000304310605E6806F44036002E76D000BF0C
:10387000002600963C4E366846F480463A4F3E603D
:103880003E46366806F48046009600BF00BF374EBD
:103890008F0856F827008E07370F0F26BE40B0431B
:1038A000334EB24202D1002624E057E0314EB242FC
:1038B00001D101261EE0304EB24201D1022619E0AC
:1038C0002E4EB24201D1032614E02D4EB24201D158
:1038D00004260FE02B4EB24201D105260AE02A4E03
:1038E000B24201D1062605E0284EB24201D1072698
:1038F00000E008268F073F0FBE4030431B4E8F0865
:1039000046F82700224E3068A0435E6806F4801611
:1039100006B120431E4E3060361D3068A0435E68FD
:1039200006F4001606B12043194E361D3060184EBD
:10393000361F3068A0435E6806F4003606B12043A7
:10394000134E361F3060361F3068A0435E6806F4A1
:10395000803606B120430E4E083E3060491C1029C7
:10396000FFF426AFF8BD000044380240083801409B
:10397000000002400004024000080240000C024027
:10398000001002400014024000180240001C0240D7
:10399000083C01400AB1816101E00B04836170477A
:1039A00001480068704700001800002070B5044608
:1039B0000CB9012070BD94F83D0028B9002084F8AE
:1039C0003C00204600F0DAF8242084F83D0020680E
:1039D000006820F00100216808602068006840F459
:1039E0000040216808602068006820F400402168D9
:1039F000086000F055FB05465C496068884206D8BF
:103A00005B48854201D2012007E0002005E05948CB
:103A1000854201D2012000E00020012800D1C9E741
:103A20005548B5FBF0F62068406820F03F00304371
:103A3000216848604D496068884201D8701C07E0E1
:103A40004FF4967070434FF47A71B0FBF1F0401C64
:103A50002168096A21F03F0108432168086243494F
:103A60006068884214D8681E61684900B0FBF1F0B4
:103A7000401CC0F30B00042801D204203DE0681E66
:103A800061684900B0FBF1F0401CC0F30B0034E06A
:103A9000A06838B9681E616801EB4101B0FBF1F024
:103AA000401C0AE0681E616801EBC10202EB0111D3
:103AB000B0FBF1F0401C40F48040C0F30B0008B9AB
:103AC00001201AE0A06848B9681E616801EB410155
:103AD000B0FBF1F0401CC0F30B000CE0681E616805
:103AE00001EBC10202EB0111B0FBF1F0401CC0F38D
:103AF0000B0040F4804040F400402168C9694CF656
:103B0000FF72914308432168C861D4E90701084363
:103B10002168096821F0C001084321680860D4E9E0
:103B2000031008432168896848F2FF329143084333
:103B300021688860D4E9050108432168C96821F03B
:103B4000FF0108432168C8602068006840F0010058
:103B50002168086000202064202084F83D000020B7
:103B6000206384F83E0000BF24E70000A086010027
:103B700080841E0000093D0040420F0010B586B051
:103B80000446142101A8FCF73AFD4C4920688842FC
:103B90007ED100BF002000904948006840F004003A
:103BA000474908600846006800F00400009000BF24
:103BB00000BF00BF002000900846006840F00100F0
:103BC00008600846006800F00100009000BF00BFD8
:103BD00048150190122002900020039003200490C9
:103BE0000420059001A93748FFF7DAFD4FF48070F3
:103BF00001901220029000200390032004900420E2
:103C0000059001A93048FFF7CBFD00BF00200090D0
:103C10002B481030006840F400002949103108603A
:103C20000846006800F40000009000BF00BF27486D
:103C3000274908604FF0C060486000212448816037
:103C4000C1604FF480610161002141618161C16106
:103C50004FF44031016200214162FFF7CDFC08B111
:103C6000FEF7E8FC00BF1A48A063846300BF174852
:103C70003030184908604FF0C06048604021154856
:103C800081600021C1604FF480610161002100E08A
:103C900011E041618161C1614FF400310162002195
:103CA0004162FFF7A9FC08B1FEF7C4FC00BF094858
:103CB0006063846300BF06B010BD0000005C00407C
:103CC00030380240000802400000024040600240DC
:103CD000D00C0020300D002003480068034909780B
:103CE00008440149086070471800002020000020A7
:103CF00010B50D48006840F400700B490860084694
:103D0000006840F4806008600846006840F48070F5
:103D10000860032000F0C6F80F2000F007F800F05C
:103D200049F8002010BD0000003C024070B588B08A
:103D3000044600250026002221461C2000F074F8CD
:103D40001C2000F061F800BF0020019016480068B8
:103D500040F00100144908600846006800F00100C6
:103D6000019000BF00BF02A903A800F071F900F0A4
:103D700097F945000D48B5FBF0F0461E4FF0804026
:103D80000B49086040F2E7310948C16046600021F4
:103D90000161816000F071FE20B9054800F0BAFEB3
:103DA00008B070BD0120FBE74038024040420F00E0
:103DB0003810002008B500BF0020009011480068AE
:103DC00040F480400F4908600846006800F48040D5
:103DD000009000BF00BF00BF00200090081F0068D7
:103DE00040F08050091F08600846006800F08050CD
:103DF000009000BF00BF00220F21901E00F014F8B9
:103E000008BD00004438024001460846002809DB8E
:103E100000F01F0301229A4043099B0003F1E023B5
:103E2000C3F8002100BF70472DE9F05F80460D46C2
:103E30001646002706F092FA074639462A463346C8
:103E400001F00700C0F1070ABAF1040F02D94FF0E0
:103E5000040A01E0C0F1070AD14600F1040ABAF1F0
:103E6000070F02D24FF0000A01E0A0F1030AD44686
:103E70004FF0010A0AFA09FAAAF1010A0AEA020A4B
:103E80000AFA0CFA4FF0010B0BFA0CFBABF1010B29
:103E90000BEA030B4AEA0B042146404606F066FA99
:103EA000BDE8F09F00BF00F00702064B19684FF60F
:103EB000FF031940044B0B4343EA0221014B1960F5
:103EC00000BF70470CED00E00000FA0570B5044635
:103ED0000D460CB9012070BD5848006800F007007D
:103EE000A84209D255490D700846006800F0070045
:103EF000A84201D00120EEE7207800F0020002285D
:103F00001DD1207800F00400042805D14C48006839
:103F100040F4E0504A490860207800F00800082882
:103F200005D14748006840F460404549086044486E
:103F3000006820F0F000A16808434149086020783B
:103F400000F00100A8B36068012807D13C48083898
:103F50000068C0F34040B8B90120BCE7606802289F
:103F600002D06068032807D1354808380068C0F3DC
:103F7000406048B90120AEE7314808380068C0F316
:103F8000400008B90120A6E72D48006820F0030092
:103F9000616808432A490860FFF702FD064609E008
:103FA000FFF7FEFC801B41F28831884202D90320D2
:103FB00091E707E02248006800F00C006168B0EB70
:103FC000810FEDD11D48006800F00700A84209D913
:103FD0001A490D700846006800F00700A84201D099
:103FE000012078E7207800F00400042807D1144865
:103FF000006820F4E050E168084311490860207827
:1040000000F00800082808D10D48006820F460403E
:10401000216940EAC1000A49086000F061F80849D6
:104020000968C1F30311074A515CC840064908609A
:1040300006480068FFF77AFE00204CE7003C02408B
:1040400008380240ECD10008240000201C000020A9
:104050000F2202600D4A126802F0030242600B4A0E
:10406000126802F0F0028260084A126802F4E0521C
:10407000C260064A126802F46042D2080261044A31
:10408000126802F007020A60704700000838024018
:10409000003C0240014800687047000024000020F6
:1040A00000B5FFF7F7FF04490968C1F38221034A0D
:1040B000515CC84000BD000008380240FCD1000837
:1040C00000B5FFF7E7FF04490968C1F34231034A2D
:1040D000515CC84000BD000008380240FCD1000817
:1040E0002DE9F047002400250026A1462548006858
:1040F00000F00C0020B1042805D008283AD105E0D2
:10410000DFF8849039E0DFF8849036E01D48001F26
:10411000006800F03F041B48001F006800F48000A6
:1041200078B11A481749091F0968C1F38811A0FB23
:1041300001700146224600233846FCF748F905463F
:104140000EE011480F49091F0968C1F38811A0FB4F
:1041500001700146224600233846FCF738F905462F
:104160000848001F0068C0F30140401C4600B5FB32
:10417000F6F902E0DFF8109000BF00BF4846BDE846
:10418000F0870000083802400024F400001BB7004C
:10419000F8B504460CB90120F8BD207800F0010004
:1041A000002874D0F948006800F00C0004280DD0F5
:1041B000F648006800F00C00082813D1F348001FEF
:1041C000006800F48000B0F5800F0BD1EF4808388C
:1041D0000068C0F34040002859D06068002856D1DC
:1041E0000120D9E700BF6068B0F5803F08D1E748FB
:1041F0000838006840F48030E449083908601EE05F
:104200006068B0F5A02F0DD1E0480838006840F490
:104210008020DE49083908600846006840F4803094
:1042200008600CE0D9480838006820F48030D7498D
:10423000083908600846006820F48020086000BF44
:10424000606890B1FFF7ACFB054606E0FFF7A8FBFE
:10425000401B642801D903209EE7CC480838006839
:10426000C0F340400028F1D011E0FFF799FB05466C
:1042700006E0FFF795FB401B642801D903208BE77C
:10428000C24808380068C0F340400028F1D12078C7
:1042900000F0020002285FD1BC48006800F00C006A
:1042A00058B1BA48006800F00C0008281CD1B74883
:1042B000001F006800F48000B0B9B44808380068F6
:1042C000C0F3400020B1E068012801D0012063E77D
:1042D000AE480838006820F0F800216940EAC100C3
:1042E000AA490839086037E0E06800B30120A8490E
:1042F0000860FFF755FB054606E0FFF751FB401B42
:10430000022801D9032047E7A04808380068C0F315
:1043100040000028F1D09D480838006820F0F800DF
:10432000216940EAC10099490839086014E0002079
:1043300097490860FFF734FB054606E0FFF730FBBE
:10434000401B022801D9032026E79048083800685E
:10435000C0F340000028F1D1207800F008000828C0
:104360002CD16069A8B101208A490860FFF718FBC9
:10437000054606E0FFF714FB401B022801D9032085
:104380000AE782486C300068C0F340000028F1D092
:1043900014E000207F490860FFF702FB054606E0B5
:1043A000FFF7FEFA401B022801D90320F4E6774804
:1043B0006C300068C0F340000028F1D1207800F094
:1043C0000400042870D1002770483830006800F0DD
:1043D000805090B900BF002000906C4838300068D1
:1043E00040F080506949383108600846006800F0A4
:1043F0008050009000BF00BF01276748006800F4AC
:104400008070B0B96448006840F480706249086008
:10441000FFF7C6FA054606E0FFF7C2FA401B02287E
:1044200001D90320B8E65C48006800F480700028D9
:10443000F2D000BFA068012808D154486830006855
:1044400040F001005149683108601DE0A06805286E
:104450000DD14E486830006840F004004B49683187
:1044600008600846006840F0010008600CE047481A
:104470006830006820F0010044496831086008464F
:10448000006820F00400086000BFA068A8B1FFF732
:1044900087FA054609E0FFF783FA401B41F28831AD
:1044A000884202D9032077E626E038486830006861
:1044B000C0F340000028EED013E0FFF771FA054684
:1044C00008E0FFF76DFA401B41F28831884201D9BC
:1044D000032061E62D4868300068C0F340000028E2
:1044E000EFD1012F07D129483830006820F08050E3
:1044F00026493831086000BFA069002845D023480C
:10450000006800F00C0008285DD0A069022845D1A1
:1045100000201F490866FFF743FA054606E0FFF74B
:104520003FFA401B022801D9032035E61748083816
:104530000068C0F340600028F1D1D4E907010843C6
:10454000616A40EA81110122A06AC2EB500041EA8F
:1045500000412C20005D41EA00600C49091F086001
:1045600001200B490866FFF71BFA054606E0FFF736
:1045700017FA401B022801D903200DE6034808382A
:104580000068C0F340600028F1D049E008380240DC
:1045900000004742800E4742007000400020214941
:1045A0000866FFF7FDF9054606E0FFF7F9F9401B3D
:1045B000022801D90320EFE51B480068C0F34060E2
:1045C0000028F2D12CE0A069012800D1E4E51648CA
:1045D000001D0668A069012820D006F48001E0696A
:1045E00081421BD106F03F01206A814216D147F675
:1045F000C0703040616AB0EB811F0FD106F44031CA
:104600000122A06AC2EB5000B1EB004F06D106F0C8
:1046100070612C20005DB1EB006F01D00120BBE583
:104620000020B9E5000047420038024010B50446BA
:104630000CB9012010BD606A38B96068B0F5827F9E
:1046400000D105E00021E16102E00021216161610A
:104650000021A16294F8510028B9002084F850008C
:10466000204600F047F8022084F8510020680068D6
:1046700020F0400021680860A08800F48270218941
:1046800001F404410843A18901F400610843217C3D
:1046900001F002010843217D01F001010843218B53
:1046A00001F400710843217F01F038010843202103
:1046B000095D01F080010843218D01F40051084398
:1046C000216808600421A06901EA104094F82410D0
:1046D00001F010010843216848602068C06920F497
:1046E00000602168C86100206065012084F85100E5
:1046F00000209FE710B586B00446142101A8FBF7FF
:104700007EFF4B49206888427ED100BF0020009088
:104710004848006840F480504649086008460068F0
:1047200000F48050009000BF00BF00BF0020009048
:1047300040481438006840F002003E4914390860CF
:104740000846006800F00200009000BF00BF00BFF4
:10475000002000900846006840F00100086008460C
:10476000006800F00100009000BF00BF1820019019
:104770000220029000200390032004900520059061
:1047800001A92D48FFF70CF880200190022002902B
:1047900000200390032004900520059001A92748DC
:1047A000FEF7FEFF2648274908604FF0C0604860CA
:1047B000002124488160C1604FF4806101610021C3
:1047C00041618161C1614FF4403101620021416268
:1047D000FEF712FF08B1FDF72DFF00BF1948E06496
:1047E000846300BF16484830174908604FF0C06026
:1047F00048604021144881600021C1604FF480610D
:1048000001610021416100E010E08161C1614FF46C
:104810000031016200214162FEF7EEFE08B1FDF7B2
:1048200009FF00BF0848A064846300BF06B010BD44
:1048300000300140443802400004024000000240C1
:1048400010640240E80D0020480E00202DE9FF5FB3
:104850000446884691461D460E9E01200290002087
:10486000019000BF94F85000012803D1022004B049
:10487000BDE8F09F012084F8500000BFFFF790F8DA
:10488000074694F851B060680390AA46BBF1010F47
:104890000BD00398B0F5827F04D1A06810B9BBF1AA
:1048A000040F02D002200190DBE0B8F1000F03D02A
:1048B000B9F1000F00D015B901200190D1E094F8B2
:1048C0005100042802D0052084F8510000206065C2
:1048D000C4F83890E587A587C4F83080E586A586BA
:1048E000206460642068006800F04000402805D023
:1048F0002068006840F0400021680860E068B0F57A
:10490000006F4AD1606810B1BAF1010F09D1206B74
:1049100000882168C860206B801C2063E08E401EE8
:10492000E08633E02068806800F00200022810D1A1
:10493000E08E70B1029801280BD1206B00882168AD
:10494000C860206B801C2063E08E401EE086002043
:1049500002902068806800F0010068B1E08F58B1D3
:104960002068C068A16B0880A06B801CA063E08FEA
:10497000401EE08701200290FFF712F8C01BB042F2
:1049800004D3701C10B1032001906AE0E08E00286F
:10499000C8D1E08F0028C5D14AE0606810B1BAF1F3
:1049A000010F09D1206B007821680873206B401C2F
:1049B0002063E08E401EE08634E02068806800F0CE
:1049C0000200022810D1E08E70B1029801280BD1AC
:1049D000206B007821680873206B401C2063E08EF8
:1049E000401EE086002002902068806800F00100F0
:1049F00068B1E08F58B12068C068A16B0870A06BE7
:104A0000401CA063E08F401EE08701200290FEF76B
:104A1000C7FFC01BB04201D3701C00B916B90320F8
:104A200001901EE0E08E0028C7D1E08F0028C4D19D
:104A30003A463146204604F08FFD20B10120019016
:104A4000202060650DE0A06850B900BF00200090F4
:104A50002068C068009020688068009000BF00BF98
:104A600000BF012084F8510000BF002084F85000EE
:104A700000BF0198FBE67047704710B504460CB9BB
:104A8000012010BD94F83D0028B9002084F83C00B6
:104A9000204600F025F8022084F83D00211D206802
:104AA00004F050FF012084F8460000BF84F83E0067
:104AB00001213F200155402001554120015500BFF3
:104AC00000BF012084F842004320015544200155D5
:104AD0004520015500BF012084F83D000020D0E7AB
:104AE00008B50A4A016891420FD100BF0021009128
:104AF0000749096841F40031054A11601146096807
:104B000001F40031009100BF00BF08BD0044014026
:104B100044380240014691F83D00012801D00120AF
:104B20007047022081F83D000868C06840F001002D
:104B30000B68D8601A4B086898421BD00868B0F11F
:104B4000804F17D0174B0868984213D0164B08684F
:104B500098420FD0154B086898420BD0144B086848
:104B6000984207D0134B0868984203D0124B08684C
:104B700098420CD10868806800F00702062A0CD021
:104B80000868006840F001000B68186005E00868DC
:104B9000006840F001000B6818600020C0E70000CA
:104BA000000001400004004000080040000C0040EC
:104BB000000401400040014000180040704710B55B
:104BC000044620680069C0F34000D8B12068C0687E
:104BD000C0F34000B0B16FF002002168086101200D
:104BE00020772068806900F0030018B12046FFF7A5
:104BF000E5FF05E0204600F0DDF8204600F091F9E1
:104C00000020207720680069C0F38000D8B12068B8
:104C1000C068C0F38000B0B16FF004002168086183
:104C2000022020772068806900F4407018B1204687
:104C3000FFF7C4FF05E0204600F0BCF8204600F076
:104C400070F90020207720680069C0F3C000D8B157
:104C50002068C068C0F3C000B0B16FF008002168E0
:104C60000861042020772068C06900F0030018B1B3
:104C70002046FFF7A3FF05E0204600F09BF8204602
:104C800000F04FF90020207720680069C0F3001081
:104C9000D8B12068C068C0F30010B0B16FF0100048
:104CA00021680861082020772068C06900F44070FE
:104CB00018B12046FFF782FF05E0204600F07AF8A1
:104CC000204600F02EF9002020772068006900F0CF
:104CD000010058B12068C06800F0010030B16FF0E9
:104CE000010021680861204600F0A2F920680069EF
:104CF000C0F3C01058B12068C068C0F3C01030B114
:104D00006FF08000216808612046FFF7B4FE20683C
:104D10000069C0F3801058B12068C068C0F38010EB
:104D200030B16FF0400021680861204600F089F939
:104D300020680069C0F3401058B12068C068C0F313
:104D4000401030B16FF02000216808612046FFF765
:104D500093FE10BD10B586B00446142101A8FBF7E0
:104D60004EFC1149206888421CD100BF00200090F1
:104D70000E48006840F002000C49086008460068D0
:104D800000F00200009000BF00BF881501900220D3
:104D900002900020039004900320059001A904488C
:104DA000FEF7FEFC06B010BD004401403038024062
:104DB0000004024070472DE9F04104460D461646B6
:104DC000002700BF94F83C00012802D10220BDE872
:104DD000F081012084F83C0000BF36B1042E1BD0C6
:104DE000082E31D00C2E5ED145E02946206804F013
:104DF00027FE2068806940F00800216888612068EB
:104E0000806920F004002168886120688069296930
:104E100008432168886148E02946206804F048FE7C
:104E20002068806940F4006021688861206880699A
:104E300020F480602168886120688069296940EADF
:104E400001202168886130E02946206804F06EFE68
:104E50002068C06940F008002168C8612068C06906
:104E600020F004002168C8612068C06929690843EE
:104E70002168C86119E02946206804F093FE206883
:104E8000C06940F400602168C8612068C06920F4EE
:104E900080602168C8612068C069296940EA0120F2
:104EA0002168C86101E0012700BF00BF00BF0020EA
:104EB00084F83C0000BF384689E710B504460CB9B9
:104EC000012010BD94F83D0028B9002084F83C0072
:104ED000204600F025F8022084F83D00211D2068BE
:104EE00004F030FD012084F8460000BF84F83E0045
:104EF00001213F200155402001554120015500BFAF
:104F000000BF012084F84200432001554420015590
:104F10004520015500BF012084F83D000020D0E766
:104F20007047704770B504460D4615B994F83E00B9
:104F30000BE0042D02D13F20005D06E0082D02D1D8
:104F40004020005D01E04120005D012801D00120EA
:104F500070BD1DB9022084F83E000EE0042D03D17F
:104F600002213F20015508E0082D03D102214020F5
:104F7000015502E002214120015501222946206805
:104F800004F04CFD23492068884203D02249206860
:104F9000884201D1012000E0002028B12068406C47
:104FA00040F40040216848641A49206888421BD0B8
:104FB0002068B0F1804F17D018492068884213D07C
:104FC0001749206888420FD01649206888420BD0C4
:104FD00011492068884207D013492068884203D0CD
:104FE0001249206888420CD12068806800F00706CA
:104FF000062E0CD02068006840F00100216808608F
:1050000005E02068006840F0010021680860002089
:105010009EE7000000000140000401400004004041
:1050200000080040000C0040004001400018004013
:1050300010B504462068B0F1804F01D1FEF74CFE58
:1050400010BD70477047704710B504460CB9012079
:1050500010BDA06900B100E000BF94F83D0028B980
:10506000002084F83C00204600F028F8242084F832
:105070003D002068C06820F400502168C8602046C8
:1050800004F0B8FE2068006920F4904021680861AF
:105090002068406920F02A00216848612068C068C3
:1050A00040F400502168C86000202064202084F86B
:1050B0003D0084F83E000020CAE7000010B586B02D
:1050C0000446142101A8FBF79AFA6E492068884229
:1050D00077D100BF002000906B48006840F01000BE
:1050E000694908600846006800F01000009000BFA1
:1050F00000BF00BF0020009063481438006840F0F3
:1051000002006149143908600846006800F0020096
:10511000009000BF00BF00BF00200090084600685C
:1051200040F0010008600846006800F001000090AF
:1051300000BF00BF80200190022002900020039059
:10514000032004900720059001A95048FEF728FB92
:105150004FF4007001900220029000200390032081
:1051600004900720059001A94948FEF719FB49481A
:10517000494908604FF0006048600021464881605E
:10518000C1604FF480610161002141618161C161B1
:105190004FF44031016200214162FEF72DFA08B15F
:1051A000FDF748FA00BF3C48A063846300BF0022BB
:1051B00005212520FEF738FE2520FEF725FE5FE0BD
:1051C000FFE73649206888425AD100BF002000908E
:1051D0002D48001F006840F480202B49091F0860FB
:1051E0000846006800F48020009000BF00BF00BFA8
:1051F0000020009024481438006840F00400224940
:10520000143908600846006800F00400009000BFF0
:1052100000BF4FF4406001900220029000200390F4
:10522000032004900720059001A91D48FEF7B8FA55
:105230001C481D4908604FF00060486000211A4872
:105240008160C1604FF48061016100214161816131
:10525000C1614FF40031016200214162FEF7CCF9D7
:1052600008B1FDF7E7F900BF0F48A063846300BFF2
:10527000002205212720FEF7D7FD2720FEF7C4FDD9
:1052800006B010BD00100140443802400004024046
:105290000000024040640240780F002000480040B7
:1052A0000008024028600240D80F002070B5044674
:1052B0000D46164694F83E00202816D105B10EB9C9
:1052C000012070BD00BF94F83C00012801D10220EC
:1052D000F7E7012084F83C0000BF0020206332463D
:1052E0002946204604F09CFEEBE70220E9E77047E0
:1052F0007047000070B5044600202074A37B484D21
:105300002D8803FB05F26168D4F8F400FBF71BF964
:10531000A27B434B1B8802FB03F16068FBF76FF92C
:10532000A27B3F4B1B885A43A37B02FB03F1D4F8BB
:105330001801FBF764F9227B394B1B885A43A37B86
:1053400002FB03F1D4F80C01FBF759F9002031E01E
:10535000D4F8F41001EB800191ED000AB5EEC00A1B
:10536000F1EE10FA24D0D4F8F41001EB800191EDA5
:10537000000A227CD4F8F41001EB820181ED000ACE
:10538000227C616A8854A16901EB800191ED000AD9
:105390006169095C227B237C12FB0311491ED4F84E
:1053A0000C2102EB810181ED000A217C491C217452
:1053B000411CC8B2A17B8142CADC002011E0626AB4
:1053C000125CE16901EB820191ED000A227C00FB95
:1053D0000202D4F8181101EB820181ED000A411C90
:1053E000C8B2217C8142EADC207CA4F87800217BD1
:1053F0007A200153207BA4F88000217C8220015375
:10540000207CA4F89000217C92200153207BA4F8FA
:105410009800217C9A200153207CA4F8480070BD9C
:105420001804002000BFFEE738B505460C460020F2
:105430002060606000BF04E0002204F108010A540B
:10544000401C217A4FF48072B2FBF1F18142F3D813
:1054500000BF00200090286800680090286840681D
:10546000009000BF00BF2868C06840F010002968A5
:10547000C86004F108012846FFF718FF38BD10B5D1
:10548000044604F10A0004F0D4FB6060204605F0F5
:10549000C5FB10BD70B52DED088B86B004460D46DA
:1054A000164694ED040ACA48D0ED000A30EE600AB0
:1054B000B0EEC00ADFEDC70AB4EEE00AF1EE10FA72
:1054C00022DC94ED050AC448D0ED000A30EE600AF3
:1054D000B0EEC00ADFEDBF0AB4EEE00AF1EE10FA5A
:1054E00012DC94ED060ABD48D0ED000A30EE600AE9
:1054F000B0EEC00ADFEDB70AB4EEE00AF1EE10FA42
:1055000002DC207800287DD094ED040ADFEDB40A97
:1055100080EE201AB0EE41BAB0EE4B0AFBF7CAF9A2
:10552000F0EE408A94ED050ADFEDAD0A80EE201A18
:10553000B0EE41BAB0EE4B0AFBF7BCF9F0EE40AA70
:1055400094ED060ADFEDA60A80EE201AB0EE41BA0D
:10555000B0EE4B0AFBF7AEF9B0EE409A94ED040AB8
:10556000DFED9F0A80EE201AB0EE41BAB0EE4B0A92
:10557000FBF70CFDB0EE40AA94ED050ADFED980AAA
:1055800080EE201AB0EE41BAB0EE4B0AFBF7FEFCFB
:10559000F0EE409A94ED060ADFED910A80EE201AB3
:1055A000B0EE41BAB0EE4B0AFBF7F0FCB0EE408A29
:1055B00068EE890A2AEE291AB0EE480A41EE000A7E
:1055C0008848C0ED000A2AEE8A0A874880ED000A62
:1055D000B0EE480A28EE800A69EE0A0A00EEE90AEF
:1055E000824880ED000A68EEA90AB0EE480A20EE73
:1055F000800A09EE4A0A7E4880ED000A28EEAA0ACF
:105600007C4800E021E080ED000AF1EE4A0AB0EEAD
:10561000480A20EE800A68EE890A00EEE90A764818
:1056200080ED000AF1EE6A0AB0EE480A20EE800A28
:10563000724880ED000A7248C0ED009A2AEE890A8D
:10564000704880ED000A00202070002011E005EB7A
:10565000800191ED000A211D01EB8001D1ED000ACE
:1056600020EE200A03A901EB800181ED000A411C14
:10567000C8B20328EBDB9DED030A5A48D0ED000ABF
:1056800020EE200ADDED040A574890ED001A01EEE5
:10569000200ADDED050A554890ED001A01EE200ABA
:1056A00085ED000A9DED030A5148D0ED000A20EE79
:1056B000200ADDED040A4F4890ED001A01EE200AA1
:1056C000DDED050A4C4890ED001A01EE200A85ED4B
:1056D000010A9DED030A4948D0ED000A20EE200A98
:1056E000DDED040A464890ED001A01EE200ADDEDDA
:1056F000050A444890ED001A01EE200A85ED020AE1
:1057000000200AE006EB800191ED000A694601EBFA
:10571000800181ED000A411CC8B20328F2DB9DED37
:10572000000A3048D0ED000A20EE200ADDED010A23
:105730002D4890ED001A01EE200ADDED020A2B48FB
:1057400090ED001A01EE200A86ED000A9DED000A98
:105750002748D0ED000A20EE200ADDED010A254899
:1057600090ED001A01EE200ADDED020A224890EDCC
:10577000001A01EE200A86ED010A9DED000A1F487D
:10578000D0ED000A20EE200ADDED010A1C4890ED64
:10579000001A01EE200ADDED020A1A4890ED001A07
:1057A00001EE200A86ED020A94ED040A084880ED15
:1057B000000A94ED050A084880ED000A94ED060AF7
:1057C000064880ED000A06B0BDEC088B70BD0000F5
:1057D000640000206F12833A680000206C000020F3
:1057E000E12E654270000020740000207800002047
:1057F0007C00002080000020840000208800002021
:105800008C0000209000002010B5044654F8EC0FE6
:1058100090ED000A834880ED000A206890ED010AAF
:10582000814880ED000A206890ED020A7F4880EDF3
:10583000000A54F8EC0990ED030A7D4880ED000A57
:105840007848D0ED000A60EEA00A774890ED001A83
:10585000D0ED001A41EE210A744890ED001AD0ED07
:10586000001A41EE210A724890ED001AD0ED001A9C
:1058700041EE210AB0EE600A05F0A4FD6D4880ED0E
:10588000000A002012E0D4F8EC1001EB800191ED49
:10589000000A6849D1ED000A20EE200AD4F8EC1085
:1058A00001EB800181ED000A411CC8B20428EADB4B
:1058B000614890ED6F0A5C48D0ED000A20EE200AA6
:1058C000F0EE000A80EE201AF834A06880ED041A89
:1058D000594890ED6F0A5548D0ED000A20EE200A95
:1058E000F0EE000A80EE201AA06880ED051A5248FA
:1058F00090ED6F0A4B48D0ED000AF1EE600A20EE01
:10590000200AF0EE000A80EE201AA06880ED0A1A44
:10591000494890ED6F0A4648D0ED000A20EE200A73
:10592000F0EE000A80EE201AA06880ED0B1A4248C3
:1059300090ED6F0A3E48D0ED000AF1EE600A20EECD
:10594000200AF0EE000A80EE201AA06880ED101AFE
:10595000394890ED6F0A3348D0ED000AF1EE600A45
:1059600020EE200AF0EE000A80EE201AA06880EDFA
:10597000111A314890ED6F0A2C48D0ED000A20EE44
:10598000200AF0EE000A80EE201AA06880ED161AB8
:10599000294890ED6F0A2448D0ED000AF1EE600A24
:1059A00020EE200AF0EE000A80EE201AA06880EDBA
:1059B000171A206890ED1C0A1F48D0ED740A80EE7B
:1059C000201A206880ED1C1A206890ED230A1A48DE
:1059D000D0ED740A80EE201A206880ED231A54F866
:1059E000F80990ED1C0ADFED150AB4EEE00AF1EEBD
:1059F00010FA05DD9FED110AD4F8F80080ED1C0ABD
:105A0000D4F8F80090ED230ADFED0C0AB4EEE00ABA
:105A1000F1EE10FA05DD9FED090AD4F8F80080EDEB
:105A2000230A10BDBC040020C0040020C4040020D0
:105A3000C8040020CC040020501C002000401C465C
:105A400010B52DED068BF0EE408AB0EE60AAB0EEF8
:105A5000419AB0EE618AF0EE429A01203A4908700C
:105A60000846C0ED6C8A80ED6DAA80ED6E9A9FEDC0
:105A7000370A80ED730A002081F838010A46C2F81F
:105A80004001C2F844010021C2F84811C2F84C118B
:105A9000B7EE000AB4EEC08AF1EE10FA03DDB7EEFD
:105AA000000AB0EE408A284880ED748AC0ED649AFE
:105AB000032300220621001D01F094F8244B01224B
:105AC0001146A3F10800FAF79EFFB7EE000A1E4840
:105AD000D0F8EC0080ED000A9FED1E0A1A48D0F8BD
